{"abi":[{"type":"constructor","inputs":[],"stateMutability":"nonpayable"},{"type":"fallback","stateMutability":"payable"},{"type":"receive","stateMutability":"payable"},{"type":"function","name":"owner","inputs":[],"outputs":[{"name":"","type":"address","internalType":"address"}],"stateMutability":"view"},{"type":"function","name":"payees","inputs":[{"name":"","type":"uint256","internalType":"uint256"}],"outputs":[{"name":"","type":"address","internalType":"address payable"}],"stateMutability":"view"},{"type":"function","name":"splitDonation","inputs":[],"outputs":[],"stateMutability":"nonpayable"},{"type":"function","name":"totalDistributed","inputs":[],"outputs":[{"name":"","type":"uint256","internalType":"uint256"}],"stateMutability":"view"},{"type":"function","name":"totalDonated","inputs":[],"outputs":[{"name":"","type":"uint256","internalType":"uint256"}],"stateMutability":"view"},{"type":"event","name":"DonationDistributed","inputs":[{"name":"payee","type":"address","indexed":true,"internalType":"address"},{"name":"amount","type":"uint256","indexed":false,"internalType":"uint256"}],"anonymous":false},{"type":"event","name":"FallBackCalled","inputs":[{"name":"sender","type":"address","indexed":true,"internalType":"address"},{"name":"amount","type":"uint256","indexed":false,"internalType":"uint256"}],"anonymous":false},{"type":"event","name":"Received","inputs":[{"name":"sender","type":"address","indexed":true,"internalType":"address"},{"name":"amount","type":"uint256","indexed":false,"internalType":"uint256"}],"anonymous":false}],"bytecode":{"object":"0x60a0604052604051806060016040528073f39fd6e51aad88f6f4ce6ab8827279cfffb9226673ffffffffffffffffffffffffffffffffffffffff1673ffffffffffffffffffffffffffffffffffffffff1681526020017370997970c51812dc3a010c7d01b50e0d17dc79c873ffffffffffffffffffffffffffffffffffffffff1673ffffffffffffffffffffffffffffffffffffffff168152602001733c44cdddb6a900fa2b585dd299e03d12fa4293bc73ffffffffffffffffffffffffffffffffffffffff1673ffffffffffffffffffffffffffffffffffffffff1681525060029060036100ef929190610135565b503480156100fb575f5ffd5b503373ffffffffffffffffffffffffffffffffffffffff1660808173ffffffffffffffffffffffffffffffffffffffff16815250506101d7565b828054828255905f5260205f209081019282156101ab579160200282015b828111156101aa578251825f6101000a81548173ffffffffffffffffffffffffffffffffffffffff021916908373ffffffffffffffffffffffffffffffffffffffff16021790555091602001919060010190610153565b5b5090506101b891906101bc565b5090565b5b808211156101d3575f815f9055506001016101bd565b5090565b608051610a706101fd5f395f818161021a0152818161023e01526104e40152610a705ff3fe60806040526004361061004c575f3560e01c8062b370441461010857806363037b0c146101325780638da5cb5b1461016e578063af6bb35814610198578063efca2eed146101ae576100b8565b366100b857345f5f82825461006191906105ec565b925050819055503373ffffffffffffffffffffffffffffffffffffffff167f88a5966d370b9919b20f3e2c13ff65706f196a4e32cc2c12bf57088f88525874346040516100ae919061062e565b60405180910390a2005b3373ffffffffffffffffffffffffffffffffffffffff167f0bd1c831c655e86a70fd76473ef9f460be2465c57916103e60a9c905ff470b58346040516100fe919061062e565b60405180910390a2005b348015610113575f5ffd5b5061011c6101d8565b604051610129919061062e565b60405180910390f35b34801561013d575f5ffd5b5061015860048036038101906101539190610675565b6101dd565b60405161016591906106df565b60405180910390f35b348015610179575f5ffd5b50610182610218565b60405161018f9190610718565b60405180910390f35b3480156101a3575f5ffd5b506101ac61023c565b005b3480156101b9575f5ffd5b506101c26105b0565b6040516101cf919061062e565b60405180910390f35b5f5481565b600281815481106101ec575f80fd5b905f5260205f20015f915054906101000a900473ffffffffffffffffffffffffffffffffffffffff1681565b7f000000000000000000000000000000000000000000000000000000000000000081565b7f000000000000000000000000000000000000000000000000000000000000000073ffffffffffffffffffffffffffffffffffffffff163373ffffffffffffffffffffffffffffffffffffffff16146102ca576040517f08c379a00000000000000000000000000000000000000000000000000000000081526004016102c1906107b1565b60405180910390fd5b5f4790505f8111610310576040517f08c379a000000000000000000000000000000000000000000000000000000000815260040161030790610819565b60405180910390fd5b5f600280549050826103229190610864565b90505f8111610366576040517f08c379a000000000000000000000000000000000000000000000000000000000815260040161035d906108de565b60405180910390fd5b5f5f90505b6002805490508110156104d4575f6002828154811061038d5761038c6108fc565b5b905f5260205f20015f9054906101000a900473ffffffffffffffffffffffffffffffffffffffff1690505f8173ffffffffffffffffffffffffffffffffffffffff16846040516103dc90610956565b5f6040518083038185875af1925050503d805f8114610416576040519150601f19603f3d011682016040523d82523d5f602084013e61041b565b606091505b505090508061045f576040517f08c379a0000000000000000000000000000000000000000000000000000000008152600401610456906109b4565b60405180910390fd5b8173ffffffffffffffffffffffffffffffffffffffff167fe871ccae3071728b63dd5c073ac969ee0412aadf68dd99b5c10a5b203449275b856040516104a5919061062e565b60405180910390a28360015f8282546104be91906105ec565b925050819055505050808060010191505061036b565b505f4790505f8111156105ab575f7f000000000000000000000000000000000000000000000000000000000000000073ffffffffffffffffffffffffffffffffffffffff168260405161052690610956565b5f6040518083038185875af1925050503d805f8114610560576040519150601f19603f3d011682016040523d82523d5f602084013e610565565b606091505b50509050806105a9576040517f08c379a00000000000000000000000000000000000000000000000000000000081526004016105a090610a1c565b60405180910390fd5b505b505050565b60015481565b5f819050919050565b7f4e487b71000000000000000000000000000000000000000000000000000000005f52601160045260245ffd5b5f6105f6826105b6565b9150610601836105b6565b9250828201905080821115610619576106186105bf565b5b92915050565b610628816105b6565b82525050565b5f6020820190506106415f83018461061f565b92915050565b5f5ffd5b610654816105b6565b811461065e575f5ffd5b50565b5f8135905061066f8161064b565b92915050565b5f6020828403121561068a57610689610647565b5b5f61069784828501610661565b91505092915050565b5f73ffffffffffffffffffffffffffffffffffffffff82169050919050565b5f6106c9826106a0565b9050919050565b6106d9816106bf565b82525050565b5f6020820190506106f25f8301846106d0565b92915050565b5f610702826106a0565b9050919050565b610712816106f8565b82525050565b5f60208201905061072b5f830184610709565b92915050565b5f82825260208201905092915050565b7f4f6e6c792074686520636f6e7472616374206f776e65722063616e2063616c6c5f8201527f20746869732066756e6374696f6e000000000000000000000000000000000000602082015250565b5f61079b602e83610731565b91506107a682610741565b604082019050919050565b5f6020820190508181035f8301526107c88161078f565b9050919050565b7f4e6f2062616c616e636520746f206469737472696275746500000000000000005f82015250565b5f610803601883610731565b915061080e826107cf565b602082019050919050565b5f6020820190508181035f830152610830816107f7565b9050919050565b7f4e487b71000000000000000000000000000000000000000000000000000000005f52601260045260245ffd5b5f61086e826105b6565b9150610879836105b6565b92508261088957610888610837565b5b828204905092915050565b7f5368617265206d7573742062652067726561746572207468616e207a65726f005f82015250565b5f6108c8601f83610731565b91506108d382610894565b602082019050919050565b5f6020820190508181035f8301526108f5816108bc565b9050919050565b7f4e487b71000000000000000000000000000000000000000000000000000000005f52603260045260245ffd5b5f81905092915050565b50565b5f6109415f83610929565b915061094c82610933565b5f82019050919050565b5f61096082610936565b9150819050919050565b7f5472616e73666572206661696c656400000000000000000000000000000000005f82015250565b5f61099e600f83610731565b91506109a98261096a565b602082019050919050565b5f6020820190508181035f8301526109cb81610992565b9050919050565b7f44757374207472616e7366657220746f206f776e6572206661696c65640000005f82015250565b5f610a06601d83610731565b9150610a11826109d2565b602082019050919050565b5f6020820190508181035f830152610a33816109fa565b905091905056fea264697066735822122071c437c51aa1ce126335298b3aa3424760bdb2cd84b8b7b569c22ca4fd3b8c4964736f6c634300081c0033","linkReferences":{}},"methodIdentifiers":{"owner()":"8da5cb5b","payees(uint256)":"63037b0c","splitDonation()":"af6bb358","totalDistributed()":"efca2eed","totalDonated()":"00b37044"},"id":21}